:100000000C941D080C9464080C9464080C94640807
:100010000C9464080C9464080C9464080C946408B0
:100020000C9464080C9488110C94CF2F0C94A1307C
:100030000C94A3200C9464080C9464080C94640839
:100040000C9464080C9464080C9464080C94640880
:100050000C9464080C9417210C9464080C946408A4
:100060000C9464080C9464080C9464080C94640860
:100070000C9464080C9464080C9464080C94640850
:100080000C9464080C9464080C9464080C94640840
:100090000C9464080C9464080C9464080C94640830
:1000A0000C9464080C9464080C946408370B390BA6
:1000B000440B3B0B3D0B3F0B410B430B460B480BDB
:1000C0004A0B550B4C0B4E0B500B520B540B570B52
:1000D000F515F5152716271674169216EA17EA175E
:1000E000D41669177A177A17DA17EA17EA17E31797
:1000F000701870188218821879188218821882185D
:10010000701870187E18821882187E181F280D2803
:100110003128D3260A290A290A280A290A295E2809
:100120000A297228EA280A290A290A290A29A62856
:100130000A290A298F280A294A280A290A2904296A
:100140000429042904290429042904290429042947
:1001500006290A291F2802280A290A290A290A2900
:100160000A290A290A290A290A290A2906290A29FB
:100170000A290A280A290229022902290229022910
:10018000022902290229022906290E3135312D3290
:1001900035312D328131A4312D32FB310A320A0042
:1001A00025303862003A200025303258000A722F7C
:1001B000632030313233343536370A00626F756E62
:1001C0006365213A20253032580A0014001A0008CD
:1001D00000150018000C001200130089000000A98F
:1001E00000A50000008400000000002B0039003C46
:1001F0000017001C00300040002F002A00E300AA76
:1002000000000000000000E100000035003A003B63
:1002100000220023002E0041002D00420049004C26
:10022000004B004A0000000000E0002900F85C3D9F
:10023000000A000B003F008A0034003E000000B3BB
:100240000000005200E200000000008B00E300000C
:1002500000050011008700880038002C004F005175
:1002600000B7005000E600000000001D001B000663
:10027000001900100036003700320028000000A7E7
:1002800000B60048000000E500E4001E001F00204A
:1002900000210024002500260027004300450044DB
:1002A000004E004D0046000000000004001600074C
:1002B0000009000D000E000F00330031000000A8FF
:1002C00000650000000000000000000000000000C9
:1002D000000000000000000000000000000000001E
:1002E000000000000083000000000000000000008B
:1002F00000000000000000000000000000000000FE
:1003000000000000000000000000000000005C0091
:100310000000000000000000000000B0000000002D
:10032000000000BD0000000000000000000000A66A
:1003300000000000000000000000000000000000BD
:10034000000000AD00000000000000000000000000
:1003500000000000000000000000000000AB00AE44
:10036000000000AC000000000000000000000000E1
:10037000000000000000000000000000000000007D
:100380000000004800000000000000000000000025
:10039000000000000000000000000000000000005D
:1003A000000000BE009A00000000000000000000F5
:1003B000000000000000000000000000000000003D
:1003C00000000000000000000000004445425547C6
:1003D0003A2064697361626C65642E0A0044454288
:1003E00055473A20656E61626C65642E0A00206391
:1003F0006F6D6D616E643A2025582C20726573759F
:100400006C743A2025582C206572726F723A202540
:1004100058200A00707332206D6F75736520656E09
:1004200061626C652064617461207265706F7274C2
:10043000696E67007073325F6D6F7573653A206621
:1004400061696C20746F20676574206D6F757365CA
:10045000207061636B65740A0020726573756C743B
:100460003A2025582C206572726F723A2025582048
:100470000A007073325F6D6F7573655F696E6974C2
:100480003A207265616420446576494400207265B3
:1004900073756C743A2025582C206572726F723A0D
:1004A000202558200A007073325F6D6F7573655F89
:1004B000696E69743A20726561642042415400207B
:1004C000636F6D6D616E643A2025582C20726573E0
:1004D000756C743A2025582C206572726F723A2020
:1004E0002558200A007073325F6D6F7573655F6900
:1004F0006E69743A2073656E64696E672072657305
:10050000657400706275663A2066756C6C0A000A44
:10051000002530325820006B6579626F6172645F2C
:100520007265706F72743A20000A002530325800EC
:100530006B6579626F6172645F7365745F6C65642B
:100540003A200064656C5F6B65795F6269743A207C
:1005500063616E27742064656C3A20253032580A36
:10056000006164645F6B65795F6269743A206361FE
:100570006E2774206164643A20253032580A006482
:100580006F6E652E0A00626F6F746D61676963201C
:100590007363616E3A202E2E2E2000290A002575E5
:1005A000002F002575005D280025640020002564CB
:1005B00000200025640020002564007C00253032E6
:1005C00058006D6F7573656B6579205B62746E7C26
:1005D000782079207620685D287265702F61636CC1
:1005E000293A205B006D6B5F776865656C5F7469A5
:1005F0006D655F746F5F6D6178203D2025640A0032
:100600006D6B5F776865656C5F6D61785F73706552
:100610006564203D2025640A006D6B5F74696D651B
:100620005F746F5F6D6178203D2025640A006D6BFB
:100630005F6D61785F7370656564203D2025640A95
:10064000006D6B5F696E74657276616C203D20256C
:10065000640A006D6B5F64656C6179203D202564E0
:100660000A006D6B5F776865656C5F74696D655FC7
:10067000746F5F6D6178203D2025640A006D6B5FAB
:10068000776865656C5F6D61785F73706565642020
:100690003D2025640A006D6B5F74696D655F746F42
:1006A0005F6D6178203D2025640A006D6B5F6D6190
:1006B000785F7370656564203D2025640A006D6B6A
:1006C0005F696E74657276616C203D2025640A0056
:1006D0006D6B5F64656C6179203D2025640A000ABA
:1006E00000257500363A20776865656C5F74696D22
:1006F000655F746F5F6D61783A20000A00257500B0
:10070000353A20776865656C5F6D61785F737065F9
:1007100065643A20000A00257500343A2074696D3A
:10072000655F746F5F6D61783A20000A002575007F
:10073000333A206D61785F73706565643A20000A12
:1007400000257500323A20696E74657276616C28F6
:100750006D73293A20000A00257500313A2064653E
:100760006C6179282A31306D73293A20000A092DED
:100770002056616C756573202D0A004D3E004D2595
:10078000643E20003F007365742064656661756C8B
:10079000740A00433E200077686572652064656CCA
:1007A00074613A20637572736F723D25642C2077F3
:1007B0006865656C3D25640A5365652068747470CE
:1007C0003A2F2F656E2E77696B6970656469612EAB
:1007D0006F72672F77696B692F4D6F7573655F6BEC
:1007E0006579730A000A092D204D6F7573656B6575
:1007F00079202D0A4553432F713A09717569740A9E
:10080000313A0964656C6179282A31306D73290A9F
:10081000323A09696E74657276616C286D73290AC3
:10082000333A096D61785F73706565640A343A091B
:1008300074696D655F746F5F6D61780A353A097729
:100840006865656C5F6D61785F73706565640A36B5
:100850003A09776865656C5F74696D655F746F5F91
:100860006D61780A0A703A097072696E7420766157
:100870006C7565730A643A09736574206465666112
:10088000756C74730A75703A092B310A646F776E50
:100890003A092D310A706775703A092B31300A70A8
:1008A00067646F776E3A092D31300A0A7370656597
:1008B00064203D2064656C7461202A206D61785F3E
:1008C0007370656564202A202872657065617420E4
:1008D0002F2074696D655F746F5F6D6178290A0000
:1008E0003F004D3E2000433E20004C25640A00742A
:1008F000696D65725F72656164333228293A20251B
:1009000030346C580A006B65796D61705F636F6E8F
:100910006669672E6E6B726F3A2025580A006B6508
:1009200079626F6172645F69646C653A2025580A68
:10093000006B6579626F6172645F70726F746F6370
:100940006F6C3A2025580A00686F73745F6B657985
:10095000626F6172645F6C65647328293A20255860
:100960000A000A092D20537461747573202D0A0042
:100970004743433A20352E342E30204156522D4CD9
:100980004942433A20322E302E30204156525F41A8
:100990005243483A20617672350A004F5054494F0D
:1009A0004E533A204C55464120424F4F544D4147FB
:1009B0004943204D4F5553454B45592045585452B6
:1009C000414B455920434F4E534F4C4520434F4DCB
:1009D0004D414E44204E4B524F20343039360A00A0
:1009E0004255494C443A2022302E362E3434392D8B
:1009F000352D6764353738616122202831393A3224
:100A0000323A30382053657020203120323031396D
:100A1000290A005649443A20307830344438282294
:100A20006F645F313936392229205049443A2030E9
:100A30007845444533282254505F4156522229209C
:100A40005645523A203078303030310A0044455310
:100A5000433A202254505F41565220627920514D32
:100A60004B220A000A092D2056657273696F6E20A9
:100A70002D0A000A092D20436F6E736F6C65202DBF
:100A80000A4553432F713A09717569740A6D3A0921
:100A90006D6F7573656B65790A000A092D204D61CC
:100AA000676963202D0A443A094465627567204DE1
:100AB00065737361676520546F67676C650A583AA0
:100AC000094D6174726978204465627567204D6FC5
:100AD000646520546F67676C65202D2053686F77BD
:100AE000206B65797072657373657320696E206D14
:100AF000617472697820677269640A4B3A094B65C0
:100B000079626F61726420446562756720546F6713
:100B1000676C65202D2053686F77206B6579707244
:100B2000657373207265706F72740A4D3A0944657B
:100B3000627567204D6F75736520546F67676C65CC
:100B40000A563A0956657273696F6E0A533A095329
:100B500074617475730A433A094163746976617408
:100B60006520436F6E736F6C65204D6F64650A4638
:100B7000312D4631303A0953776974636820746FB8
:100B8000204C6179657220302D3920284631302083
:100B90003D204C30290A302D393A09537769746366
:100BA0006820746F204C6179657220302D390A47B6
:100BB000524156453A0953776974636820746F202F
:100BC0004C6179657220302028616C7465726E61A9
:100BD0007465290A423A094A756D7020746F204283
:100BE0006F6F746C6F616465720A4553433A094ACA
:100BF000756D7020746F20426F6F746C6F616465E7
:100C0000722028616C7465726E617465290A453AB8
:100C1000095072696E7420454550524F4D205365FE
:100C20007474696E67730A4253504143453A0943ED
:100C30006C65617220454550524F4D0A4E3A094E3F
:100C40004B524F20546F67676C650A000A00257588
:100C5000002E6E6B726F3A20000A002575002E730D
:100C60007761705F6261636B736C6173685F62610F
:100C7000636B73706163653A20000A002575002E6E
:100C8000737761705F67726176655F6573633A2041
:100C9000000A002575002E6E6F5F6775693A2000A7
:100CA0000A002575002E737761705F72616C745F46
:100CB000726775693A20000A002575002E73776106
:100CC000705F6C616C745F6C6775693A20000A0034
:100CD0002575002E636170736C6F636B5F746F5F5B
:100CE000636F6E74726F6C3A20000A002575002ED7
:100CF000737761705F636F6E74726F6C5F63617046
:100D0000736C6F636B3A20000A0025303258006B19
:100D100065796D61705F636F6E6669672E7261776A
:100D20003A20000A002575002E6D6F7573653A2014
:100D3000000A002575002E6B6579626F6172643A56
:100D400020000A002575002E6D61747269783A20C2
:100D5000000A002575002E656E61626C653A200000
:100D60000A00253032580064656275675F636F6EF4
:100D70006669672E7261773A20000A002575006463
:100D8000656661756C745F6C617965723A20003FCD
:100D9000004E4B524F3A206F66660A004E4B524F40
:100DA0003A206F6E0A000A6D6F7573653A206F66A0
:100DB000660A000A6D6F7573653A206F6E0A000A45
:100DC0006B6579626F6172643A206F66660A000A29
:100DD0006B6579626F6172643A206F6E0A000A6D0A
:100DE00061747269783A206F66660A000A6D6174F0
:100DF0007269783A206F6E0A000A64656275673A14
:100E0000206F66660A000A64656275673A206F6E35
:100E10000A000A0A4A756D70696E6720746F206255
:100E20006F6F746C6F616465722E2E2E2000433ECE
:100E30002000436C656172696E6720454550524FD2
:100E40004D0A006565636F6E6669673A0A005B73F9
:100E50005D004B6579626F617264207374617274B6
:100E60002E0A005B575D005B535D005B525D005BCB
:100E7000445D005B435D0004033000000012032268
:100E800000540050005F0041005600520022000054
:100E900000140322006F0064005F00310039003647
:100EA000003900220000000403090409025B00036A
:100EB0000100A0FA09040000010301010009211149
:100EC0000100012240000705810308000A0904010E
:100ED00000010300000009211101000122C00007E8
:100EE00005820320000A0904020002030000000931
:100EF00021110100012222000705830320000107C0
:100F00000503032000011201100100000008D804AD
:100F1000E3ED0100010203010631FF0974A101099B
:100F200075150026FF0095207508810209761500C9
:100F300026FF00952075089102C005010902A10154
:100F400085020901A10005091901290515002501DE
:100F5000950575018102950175038101050109302F
:100F600009311581257F950275088106093815819B
:100F7000257F950175088106050C0A380215812523
:100F80007F950175088106C0C005010980A1018512
:100F9000031601002603001A81002A8300751095AC
:100FA000018100C0050C0901A1018504160100267C
:100FB0009C021A01002A9C02751095018100C0054F
:100FC000010906A1018505050719E029E715002596
:100FD0000195087501810205081901290595057516
:100FE0000191029501750391010507190029EF157B
:100FF00000250195F075018102C005010906A101D6
:10100000050719E029E715002501950875018102FA
:1010100095017508810105081901290595057501D6
:1010200091029501750391010507190029FF15002B
:1010300026FF00950675088100C011241FBECFEF62
:10104000DAE0DEBFCDBF04B603FE27C08091E10227
:101050009091E202A091E302B091E4028730904BBC
:10106000A740B04BD1F41092E1021092E20210922C
:10107000E3021092E40214BE84B7877F84BF0FB6E8
:10108000F894A89580916000886180936000109228
:1010900060000FBEE0E0F8E3099511E0A0E0B1E0E8
:1010A000ECEBF5E602C005900D92A637B107D9F733
:1010B00022E0A6E7B1E001C01D92A13EB207E1F730
:1010C0000E94F02C0C94DC320C940000FF93EF9300
:1010D000E0917601F0917701309709F00995EF9151
:1010E000FF910895FC018591803011F0EFDFFBCF77
:1010F0000895FF27E0E230E247FF0CC0419597FFDB
:1011000009C0EDE26095709580959095611D711D07
:10111000811D911D27FF02C0219530E350E2AA27CF
:10112000660F771F881F991FAA1FA41710F0A41B12
:1011300063955A95A9F7AA3008F0A95FA05DAF930F
:10114000F395611571058105910541F7ED3211F4B3
:10115000EF93F395F21718F43F93F395FBCF8F912C
:10116000B5DFFA95E1F70895E991F991859180301D
:1011700021F0853219F0AADFF9CF089520E0E89434
:1011800055915532C1F3503311F4689455915A3347
:1011900048F4505390F3220F022E220F220F200DFD
:1011A000250FF4CF0EF4219589919991533619F3B7
:1011B000533729F1533559F1BC0188279927E89411
:1011C0005C3621F48991999168945591543639F49B
:1011D00046EF7EF077FF0DC08FEF9FEF0AC05537C7
:1011E0004AE039F0583540E121F0523642E009F04A
:1011F0000895FF93EF937DDFEF91FF91B7CFFF93BA
:10120000EF93FC0181918030B9F360DFFBCFFF9356
:10121000EF9368DFF1CFDF93CF93CDB7DEB725969D
:10122000A3DFCF91DF91089508950C941409CF9313
:10123000DF9385B7806885BF85B7806885BF84B137
:101240008E6184B985B1817E85B9EDE4F1E025E256
:1012500031E0CDE3D1E041915191D9018D919D01D2
:101260008095DA019C9198239C93A991B9919C91C6
:1012700089238C93B1E0ED35FB0769F7209A289A12
:101280008AB1806B8AB98BB1806B8BB93E9A469AD2
:101290003E9A469AE8E8F1E0A8E7B1E0119211928F
:1012A0001D921D9281E0E839F807C1F7DF91CF91D7
:1012B0000C94CA0A2F923F924F925F926F927F9244
:1012C0008F929F92AF92BF92CF92DF92EF92FF9256
:1012D0000F931F93CF93DF9335E1632E31E0732E8D
:1012E00000E010E022242394312C5CEB452E51E0E9
:1012F000552ED3019D913D0185B1817E892B85B904
:10130000BAE1BA95F1F700C06101002E02C0CC0C21
:10131000DD1C0A94E2F788E7E82E81E0F82E9DE2D2
:10132000A92E91E0B92E25E2822E21E0922EE7012E
:1013300088819981D501ED91FD915D01D4013D91A7
:101340004D01BC016C217D2141E0672B09F440E097
:101350002081232331E009F430E04317C9F08C25C4
:101360009D259983888380910001882371F0909155
:10137000980290FF0AC01F928F935F924F920E9433
:101380000B090F900F900F900F90B5E0B0930001F4
:101390002296E1E0C838DE0759F60F5F1F4F003193
:1013A000110509F0A6CF809100018823C9F0815072
:1013B00080930001882339F08FE99FE00197F1F7CE
:1013C00000C000000DC0E8E8F1E0D7018D919D91CB
:1013D0007D0181939193B8E8EB16B1E0FB06A9F784
:1013E0000E94D20A81E0DF91CF911F910F91FF906F
:1013F000EF90DF90CF90BF90AF909F908F907F90B5
:101400006F905F904F903F902F900895E82FF0E0FD
:10141000EE0FFF1FE857FE4F808191810895CF9214
:10142000DF92EF92FF920F931F93CF93DF938DEA9A
:1014300091E00E94720808E811E0C0E0D0E088EA7C
:10144000C82E81E0D82E90EAE92E91E0F92EDF93A4
:10145000CF93DF92CF920E940B0985EA91E00E9420
:101460007208F80180810E5F1F4F0E94F71E1F92C5
:101470008F93FF92EF920E940B098EE991E00E94F8
:10148000720821968DB79EB708960FB6F8949EBF46
:101490000FBE8DBFC830D105D1F6DF91CF911F911E
:1014A0000F91FF90EF90DF90CF9008950C94140966
:1014B0000C947B0A209A8AB1806B8AB93E9A6E9A04
:1014C00008950E945A0A0C94150981FF02C05C9885
:1014D00001C05C9A82FF02C05F9801C05F9A80FFE2
:1014E00002C0469801C0469A83FF02C0769801C0A8
:1014F000769A0C94D40ACF93883F9C4561F4FB0103
:10150000C28181E0CC2321F00E94CB1CC0E004C04A
:101510000E94EC1C01C0C1E08C2FCF91089581E0A6
:1015200008951F93CF93DF9300D000D01F92CDB7C3
:10153000DEB749835A836B832091E20189819A81C6
:10154000211112C0662349F00E94C01D182F682F78
:1015500089819A810E94691D03C00E94941D182FE1
:1015600069817A81812F04C00E94C01D69817A81BE
:101570000F900F900F900F900F90DF91CF911F91D0
:101580000C94E80BFC01408151816281738184815C
:101590000C94910A0E94091F811102C00E94991F98
:1015A0000C94610A0C94560A08950C94650A0895E7
:1015B0000E945E180E94D70A2FEF84E39CE021501E
:1015C00080409040E1F700C0000087E797E79093E4
:1015D0000108809300080C943D210F931F93CF9333
:1015E000DF938C010E94C20AEC01B8010E94580AE4
:1015F0008823C9F0B801CE010E94D20E882399F049
:10160000C531FCE5DF0708F086C0C2308CE5D8079D
:1016100060F4C115ECE5DE0709F059C0F8018281DC
:1016200081110E94D80AC0E0C9C0F80182818823D4
:1016300009F450C00E94091F811102C00E94991F25
:101640000E94261F90E09093D3028093D202FE0165
:10165000E350FC45E231F10530F4EA5AFF4F809146
:10166000D2020C9480328091D202816027C08260C5
:1016700025C0846023C0806121C080621FC0806457
:101680001DC080681BC08460886018C08E7F16C033
:101690008D7F14C08B7F12C08F7E10C08F7D0EC0D7
:1016A0008F7B0CC08F770AC08B7F877F07C087FB3B
:1016B000222720F991E0922790FB87F98093D202AC
:1016C0008091D2020E942A1F0E945E18ACCFC130C6
:1016D000DC4539F0C801DF91CF911F910F910C9437
:1016E0008F0AF8018281882309F49DCF80919802A6
:1016F000C82FC095C170C0FB80F980939802CC239D
:1017000029F08DED93E00E9472088DCF8BEC93E071
:101710000E94720853C0CC3D8CE5D80739F4F8011B
:101720008281882309F47FCF80E00EC0CD3DECE5B7
:10173000DE0768F0CD3D8CE5D807A1F5F801828180
:10174000882309F470CF82E00E94962D6CCFC631B9
:10175000DC4509F0BFCF0E94411E982FF80182811D
:101760002091020130910301882379F09A7A81E077
:1017700009F480E080939801911102C069E201C0F0
:1017800065E3C9010E9423200AC08091980181115C
:1017900002C069E201C065E3C9010E942E200E94D7
:1017A0008F1E41CFCE3DDC4509F094CFF8018281F8
:1017B000882309F438CF0E94991F35CF8C2FDF91F1
:1017C000CF911F910F91089580E090E008950895C2
:1017D000E72FF0E098E0899FE00DF11D112484E0EF
:1017E000EE0FFF1F8A95E1F7E60FF11DEE0FFF1FC9
:1017F000E553FE4F859194910895880F991FFC0140
:10180000E251FC4F859194910895CF93DF930E940C
:10181000E80B0E94BF0DEC018115904508F041C016
:10182000C11580E4D80708F028C1C83ED10510F5DD
:10183000C03ED10508F09FC1C83AD10578F4C53A39
:10184000D10508F0A2C0C130D10509F494C108F453
:1018500045C1C430D10508F08EC140C1CF3BD10590
:1018600008F49EC0C03CD10508F438C1CE01805CAC
:101870009109F5C0C11590E2D90758F4C11521E0CE
:10188000D20708F078C1C03FD10508F427C1D06560
:1018900072C1C11580E3D80708F0E5C0CE019F7082
:1018A000DEC0C11595E5D90708F043C0C11524E590
:1018B000D20708F0F9C0C11582E5D80708F5C115AF
:1018C00091E5D90708F0DCC0CE0174E096958795C4
:1018D0007A95E1F783709C2F937021E030E002C08D
:1018E000220F331F9A95E2F73C68382BCF70C695CC
:1018F000C69580E2C89FE0011124C22BD32B3BC1C7
:101900009E01237033278C2F86958695C115D3456C
:1019100008F0BBC0C1E0D0E002C0CC0FDD1F2A95AB
:10192000E2F720E2829FC0011124C82BD92BDC688A
:1019300022C1C11529E5D207A0F4C11588E5D80751
:1019400008F0B7C0C11596E5D90708F0C7C08C2FBD
:101950000E943B0E8F71C82FD0E0DC2FCC27D062C5
:101960000AC1C1152AE5D20708F4A8C0CE019056D5
:101970008115904208F0B2C08D2F8F710E943B0EEE
:10198000DD27D0628F71D82BF6C0C53AD10509F496
:10199000A8C0C63AD10509F0A7C0C2E8D0E4EBC0A0
:1019A000C83AD10509F4A3C0C93AD10509F4A2C0C7
:1019B000CA3AD10509F4A1C0CB3AD10509F4A0C0B7
:1019C000CC3AD10509F49FC0CB3BD10509F49EC0A8
:1019D000CC3BD10509F49DC0CD3AD10509F49CC09A
:1019E000C03BD10509F49BC0CE3AD10509F49AC099
:1019F000CF3AD10509F499C0C13BD10509F498C08B
:101A0000C23BD10509F497C0C33BD10509F496C088
:101A1000C43BD10509F495C0C53BD10509F494C078
:101A2000C63BD10509F493C0C73BD10509F492C068
:101A3000C83BD10509F491C0C93BD10509F490C058
:101A4000CD3BD10509F48FC0CE3BD10509F48EC042
:101A5000CA3BD10509F48DC0C0E0D4E48CC00E941B
:101A6000FD0BEC0188C0CE019927D3FF03C0EC0128
:101A7000D86C81C0EC01D06C7EC0DF70D06A7BC0B6
:101A8000DC2FCC27C16FD06A76C0C1E0D0E002C0A5
:101A9000CC0FDD1F2A95E2F720E2829FC0011124BE
:101AA000C82BD92BDA6867C0DC2FCC27C46FD06A6B
:101AB00062C0DC2FCC27C06FD06A5DC08C2F8F70C6
:101AC0000E943B0E94E0D695C7959A95E1F7CF70AA
:101AD000D0E0DC2FCC27D069C82B4DC0C0E0D0E0CF
:101AE0004AC0C1E8D0E447C0C3E8D0E444C0C2EE75
:101AF000D4E441C0C9EED4E43EC0CAEED4E43BC055
:101B0000C5EBD4E438C0C6EBD4E435C0C3EBD4E4B1
:101B100032C0C4EBD4E42FC0C7EBD4E42CC0CCEC6F
:101B2000D4E429C0CDECD4E426C0C3E8D5E423C076
:101B3000CAE8D5E420C0C2E9D5E41DC0C4E9D5E4B3
:101B40001AC0C1E2D6E417C0C3E2D6E414C0C4E2AE
:101B5000D6E411C0C5E2D6E40EC0C6E2D6E40BC09E
:101B6000C7E2D6E408C0CFE6D4E405C0C0E7D4E4B9
:101B700002C0CAE2D6E4CE01DF91CF910895823847
:101B8000910549F1B0F48133910509F459C048F445
:101B90008932910509F44FC08A32910509F455C084
:101BA00008958533910509F441C08933910599F071
:101BB0000895833E910531F138F4803E910591F00E
:101BC000823E9105A9F00895863E910501F1873E78
:101BD000910539F108952091D20220FD3BC021FDED
:101BE00039C008958091D20280FF34C089E341C09A
:101BF0008091D20282FF30C08091D20284FD2EC03B
:101C000083EE37C08091D20282FD26C0F5CF80914D
:101C1000D20283FF25C08091D20284FD1FC087EECF
:101C200028C08091D20283FD1BC0F5CF8091D202E3
:101C300085FD18C019C08091D20285FD15C012C063
:101C40008091D20286FD12C013C08091D20286FD1F
:101C50000FC00CC080EE0DC082EE0BC080E009C04A
:101C600086EE07C089E205C085E303C08AE201C0B1
:101C700081E390E008959091D20292FF0DC0282F49
:101C80002871283019F4877F846006C0282F2471BA
:101C9000243011F48B7F886093FF0DC0282F2871AA
:101CA000283119F4877E846106C0282F24712431DD
:101CB00011F48B7E886194FD877E08950F931F93A6
:101CC000CF93DF93C62FD42F122FFC01828188235C
:101CD000C9F060939B010E94D52090939A01809354
:101CE000990180E28C0F883008F057C0C77081E0FE
:101CF00001C0880FCA95EAF7DF91CF911F910F912C
:101D00000C94B51580919B01681330C080919901A6
:101D100090919A010E94ED20883C910538F500E2EF
:101D20000D0FCD17B9F080E28C0F883040F4C770EA
:101D300081E001C0880FCA95EAF70E94BC150830FF
:101D400028F581E09D2F977001C0880F9A95EAF7DA
:101D50000E94B515812F0E94A2150830F0F4D770AB
:101D600081E001C0880FDA95EAF70AC080E28C0FA3
:101D7000883098F4C77081E001C0880FCA95EAF7EF
:101D8000DF91CF911F910F910C94BC15812FDF91A2
:101D9000CF911F910F910C94A215DF91CF911F91BC
:101DA0000F9108959C01CB01203F4CE53407F9F0D9
:101DB00078F4283DFCE53F07B9F0293D4CE53407B0
:101DC00011F1273D3C4531F526E241EE61EE1EC0A2
:101DD000223FFCE53F0799F070F0233F3C45D1F4EA
:101DE00027E245EE66EE12C027E245EE0EC026E27F
:101DF00041EE60EE0BC027E245EE64EE07C026E23E
:101E000041EE62EE03C028E241E065EE0E945E0E04
:101E100080E00895FC018281882319F010929B01D3
:101E2000089581E0089508958BEE0E94C9108A3FBD
:101E3000A1F40E94B4109091CC02892B8093A1014F
:101E40000E94B4108093A2010E94B4109091A2014C
:101E50002091A101992349F014C08091980283FF39
:101E6000A1C084E394E00C94720881110AC03091FF
:101E7000A401311106C030919F013227377009F457
:101E800087C020939F01322F307424FF07C0311187
:101E90000AC0903841F097FD09C005C0311105C056
:101EA00097FF04C002C091E801C09FE79093A20190
:101EB00025FF07C027FD0AC0803841F087FD09C013
:101EC00005C027FD05C087FF04C002C081E801C02E
:101ED0008FE7922F97709093A10181958093A30132
:101EE00080919E0122FF27C0811109C00E94D52048
:101EF00090939D0180939C0181E080939E0190913D
:101F0000A2018091A301911102C08823C1F122E0B6
:101F100020939E0187FD8F5F859581958093A40115
:101F2000892F97FD8F5F85958093A5011092A2015F
:101F30001092A30124C0813001F580919C01909101
:101F40009D010E94ED208C329140B8F48091A10156
:101F500084608093A10180EA91E00E9499128FEF42
:101F600091EE24E0815090402040E1F700C0000055
:101F70008091A1018B7F8093A10110929E0180919D
:101F8000A1018B7F8093A10180EA91E00E949912C8
:101F90001092A2011092A3011092A4011092A50127
:101FA0001092A1010895CF9384EF0E94C910C82F09
:101FB0008091980283FF1BC084E194E00E94720824
:101FC0008091CA011F928F931F92CF931F9284EF2B
:101FD0008F938EEE93E09F938F930E940B098DB7A2
:101FE0009EB708960FB6F8949EBF0FBE8DBFCF91D7
:101FF0000895CF930E94A5102FEF83ED90E3215019
:1020000080409040E1F700C000008FEF0E94C910AF
:10201000C82F8091980283FF1BC085EE94E00E9438
:1020200072088091CA011F928F931F92CF931F92C3
:102030008FEF8F938FEB94E09F938F930E940B0908
:102040008DB79EB708960FB6F8949EBF0FBE8DBF92
:102050000E94B410C82F8091980283FF16C086EAB0
:1020600094E00E9472088091CA011F928F931F9280
:10207000CF938DE894E09F938F930E940B090F906C
:102080000F900F900F900F900F900E94B410C82FD8
:102090008091980283FF16C082E794E00E94720844
:1020A0008091CA011F928F931F92CF9389E594E08C
:1020B0009F938F930E940B090F900F900F900F909A
:1020C0000F900F900E94D30FCF910C94130F9FB7D6
:1020D000F8942091A8018091A901821761F030E065
:1020E000F901E655FE4F80812F5F3F4F2F71332757
:1020F0002093A80101C080E09FBF0895CF93DF9394
:10210000EC010E941712882341F0209731F085E0FE
:102110008A95F1F700002197F4CFCE01DF91CF919E
:102120000895CF93DF93C2E3D0E00E94171281118C
:1021300008C0209731F085E08A95F1F700002197DB
:10214000F4CFCE01DF91CF9108950E9414120E9426
:102150002512E8E6F0E0808181608083EBE6F0E024
:1021600080818062808308958AE1815011F40C940B
:1021700067103FB7F8942091A9019091A8013FBF43
:102180002913F5CFEFE9FFE03197F1F700C0000028
:10219000ECCFEF92FF920F931F93CF93DF93E82E34
:1021A0001092CA0180916B008F7D80936B000E941A
:1021B00011120E9425128FE891E00197F1F700C0FB
:1021C00000000E9422120E94141280E197E20E94F5
:1021D0007E10892B11F48AE077C0C0E0D0E011E0D6
:1021E000F12C01E090E59A95F1F7C7010C2E02C0A1
:1021F000959587950A94E2F780FF04C010270E9406
:10220000251202C00E9422120E949110892B11F403
:1022100082E05AC082E390E00E947E10892B11F484
:1022200083E052C02196C830D105E1F680E58A9559
:10223000F1F7112319F00E94251202C00E94221208
:102240000E949110892B11F484E03EC082E390E05B
:102250000E947E10892B11F485E036C090E59A9596
:10226000F1F70E942512C2E3D0E00E9428128823D1
:1022700041F0209741F025E02A95F1F700002197E1
:10228000F4CFCD2B11F486E01FC082E390E00E94D2
:102290007E10892B11F487E017C00E949110892BC2
:1022A00019F0C2E3D0E009C088E00EC0209759F0D1
:1022B00085E08A95F1F7000021970E942812882373
:1022C000A9F3CD2BA1F489E08093CA010E941412D6
:1022D0000E94251280916B00806280936B0080E0E9
:1022E000DF91CF911F910F91FF90EF9008950E9481
:1022F00014120E94251280916B00806280936B0003
:10230000DF91CF911F910F91FF90EF900C94B4103B
:102310001F920F920FB60F9211242F933F934F935A
:102320005F936F937F938F939F93AF93BF93CF935D
:10233000EF93FF930E941712811161C08091A70152
:102340008F5F8093A7018A3028F4823068F481304F
:1023500031F04AC08A30D9F08B3029F145C00E9453
:102360002812811141C04BC08091A60186958093AF
:10237000A6010E942812882309F441C08091A60179
:1023800080688093A601809101018F5F36C00E9412
:10239000281290910101882319F090FF25C02FC0C9
:1023A00090FD22C02CC00E9428128823E9F04091A1
:1023B000A601CFB7F8948091A90190E09C012F5F0E
:1023C0003F4F2F7133275091A801521739F0FC016C
:1023D000E655FE4F40832093A90104C083E095E0B9
:1023E0000E947208CFBF04C08091A7018093CA01E8
:1023F0001092A7011092A60181E080930101FF9144
:10240000EF91CF91BF91AF919F918F917F916F91FC
:102410005F914F913F912F910F900FBE0F901F90A2
:1024200018952D98259A089525982D9A0895259800
:102430002D9A85E08A95F1F7000083B185FB882706
:1024400080F908952E98269A089526982E9A089530
:1024500026982E9A85E08A95F1F7000083B186FBD5
:10246000882780F908959093D0018093CF01089533
:10247000E091CF01F091D001309721F00190F081EF
:10248000E02D099480E00895EF92FF921F93CF937F
:10249000DF93FC01A091CF01B091D001109709F416
:1024A00042C080911401882341F08091D20287FFBD
:1024B00004C08081818385E08083EF011296ED91D5
:1024C000FC911397CE0109958091980282FF2BC051
:1024D00080FF04C087E195E00E94720818E081E166
:1024E000E82E85E0F82E8091980280FF0BC088814D
:1024F0001F928F93FF92EF920E940B090F900F9003
:102500000F900F90115021961111EDCF80919802EC
:1025100080FF09C08FE095E0DF91CF911F91FF9080
:10252000EF900C947208DF91CF911F91FF90EF9084
:102530000895E091CF01F091D001309739F022E079
:10254000DC012C930480F581E02D099408952091FD
:10255000CD013091CE012817390771F09093CE014B
:102560008093CD01E091CF01F091D001309721F01F
:102570000680F781E02D099408952091CB013091D8
:10258000CC012817390771F09093CC018093CB01CF
:10259000E091CF01F091D001309721F00084F185D6
:1025A000E02D0994089585B7806885BF85B7806858
:1025B00085BF089508950C94DA120C94DB120C94E4
:1025C000DA120C94DA120E94D3120E94DF120C94D9
:1025D000DD1281E008950E94CC200E9417090E941C
:1025E000F90F0E949A210C94E112CF93C82F809189
:1025F000980282FF1EC080FF04C080E395E00E9425
:1026000072088091980280FF0CC01F92CF938BE2DA
:1026100095E09F938F930E940B090F900F900F905E
:102620000F908091980280FF04C089E295E00E949B
:1026300072088C2FCF910C94D50A5F926F927F9283
:102640008F929F92AF92BF92CF92DF92EF92FF92C2
:102650000F931F93CF93DF93CDB7DEB72A970FB6B3
:10266000F894DEBF0FBECDBF0E945A090E94E91246
:10267000811111C08FEF89838A831B820E94D5202C
:102680008160782F9D838C8349815A816B818D81F4
:102690000E94DC1356C092ED692E91E0792E00E085
:1026A00010E088248394912C502E802F0E94060ADB
:1026B0006C01F301A190B1903F01A826B926A114A5
:1026C000B10431F40F5F1F4F0830110569F7D2CF05
:1026D0008091980281FD0E940F0A80E090E07401D1
:1026E000082E02C0EE0CFF1C0A94E2F795012E2181
:1026F0003F21232B09F18E835F82CE20DF2081E0F2
:10270000CD2809F480E088870E94D5208160782F49
:102710009A8789874E815F8168858A850E94DC134C
:10272000000F111FF801EE52FE4F80819181E826C3
:10273000F926F182E08205C001968031910579F693
:10274000C1CF0E94C7240E94140F0E94381290919A
:10275000D1018917D9F00E9438128093D1012A96AD
:102760000FB6F894DEBF0FBECDBFDF91CF911F91A2
:102770000F91FF90EF90DF90CF90BF90AF909F9020
:102780008F907F906F905F900C94F5122A960FB601
:10279000F894DEBF0FBECDBFDF91CF911F910F9197
:1027A000FF90EF90DF90CF90BF90AF909F908F9071
:1027B0007F906F905F900895CF93DF93CDB7DEB792
:1027C0002B970FB6F894DEBF0FBECDBF4F8358874F
:1027D00069877A878B87DE01119686E0FD01119269
:1027E0008A95E9F785E0FE01379601900D928A956A
:1027F000E1F749815A816B817C818D819E810E94A4
:102800002E1B2B960FB6F894DEBF0FBECDBFDF9107
:10281000CF910895FC01808191810E94021E08954C
:10282000CF93882309F424C1C82F8238C1F40E94B1
:10283000381281FD1DC169E380910201909103016D
:102840000E9423200E948F1E2FEF81EE94E02150E2
:1028500080409040E1F700C0000069E319C0833870
:1028600001F50E94381280FD03C163E580910201E9
:10287000909103010E9423200E948F1E2FEF81EE72
:1028800094E0215080409040E1F700C0000063E5F3
:1028900080910201909103010E942E20CF910C940F
:1028A0008F1E8438C1F40E94381282FDE1C067E4B3
:1028B00080910201909103010E9423200E948F1EAB
:1028C0002FEF81EE94E0215080409040E1F700C06E
:1028D000000067E4DDCF8CEF8C0F813A68F48C2F19
:1028E0000E9421298111C4C06C2F80910201909116
:1028F00003010E942320D2CF80E28C0F883048F45D
:10290000C77081E001C0880FCA95EAF70E94441E93
:10291000C5CF8BE58C0F833078F4C53A29F0C63AE1
:1029200031F083E890E005C081E890E002C082E8E1
:1029300090E0CF910C94A71288E58C0F873108F0B6
:102940008FC0C83A09F445C0C93A09F445C0CA3A2B
:1029500009F445C0CB3A09F445C0CC3A09F445C066
:10296000CB3B09F445C0CC3B09F445C0CD3A09F452
:1029700045C0C03B09F445C0CE3A09F445C0CF3A42
:1029800009F445C0C13B09F445C0C23B09F445C048
:10299000C33B09F445C0C43B09F445C0C53B09F439
:1029A00045C0C63B09F445C0C73B09F445C0C83B18
:1029B00009F445C0C93B09F445C0CD3B09F445C005
:1029C000CE3B09F445C0CA3B09F445C080E090E025
:1029D00044C082EE90E041C089EE90E03EC08AEEB5
:1029E00090E03BC085EB90E038C086EB90E035C0CE
:1029F00083EB90E032C084EB90E02FC087EB90E057
:102A00002CC08CEC90E029C08DEC90E026C083E8CF
:102A100091E023C08AE891E020C082E991E01DC0E6
:102A200084E991E01AC081E292E017C083E292E06B
:102A300014C084E292E011C085E292E00EC086E20A
:102A400092E00BC087E292E008C08FE690E005C0FC
:102A500080E790E002C08AE292E0CF910C94BD1230
:102A6000C03F30F08C2F0E944D23CF910C943A241C
:102A7000CF910895882309F464C0823879F40E94C4
:102A8000381281FF5EC069E38091020190910301D9
:102A90000E9423200E948F1E69E310C08338B1F486
:102AA0000E94381280FF4DC063E580910201909131
:102AB00003010E9423200E948F1E63E58091020182
:102AC000909103010E942E200C948F1E843879F47B
:102AD0000E94381282FF35C067E480910201909114
:102AE00003010E9423200E948F1E67E4E7CF9CEF22
:102AF000980F913A10F4682FE1CF90E2980F983038
:102B000050F4877091E001C0990F8A95EAF7892FF8
:102B10000E944A1ED9CF9BE5980F933020F480E0A5
:102B200090E00C94A71298E5980F973120F480E07C
:102B300090E00C94BD12803F20F00E94B5230C94CD
:102B40003A240895CF93C82F0E941014C93349F432
:102B50002FEF87EE93E0215080409040E1F700C0D6
:102B600000008C2FCF910C943A15882321F00E94FD
:102B7000441E0C948F1E0895882321F00E944A1E43
:102B80000C948F1E0895CF92DF92EF92FF920F93D5
:102B90001F93CF93DF937C01062FC72FFC01158174
:102BA00012951F70D281D1110E94611E0E943A1E9F
:102BB000882379F0DD2369F080E2800F883048F0C7
:102BC00082E00E94D91E0E943A1E91E0D82ED9269A
:102BD00001C0D12CCC2EC2948FE0C8228C2D90E065
:102BE000FC01E859FF4F0C9480328C2F807FCF700E
:102BF000882311F0C295C07FDD2399F0CC2309F41E
:102C0000C4C180E2800F883010F0011104C08C2F05
:102C10000E94441E03C08C2F0E94541E0E948F1ECF
:102C2000B4C1802F0E943A15CC2309F4D3C180E2AD
:102C3000800F883010F0011104C08C2F0E944A1EB2
:102C400003C08C2F0E945A1E0E948F1EC3C18C2F5E
:102C5000807FCF70803211F0C295C07F002319F0C1
:102C60000130C9F022C0DD2371F0112341F0113091
:102C700031F40E94741E8C2B0E947C1EABC10E94FA
:102C8000741E8C2B1DC0112319F0113009F4A2C140
:102C90000E94851E25C0DD2321F0163008F09AC160
:102CA0000EC0153008F096C11BC0DD2361F0112362
:102CB00031F0F701858180FF68C18F7085838C2F8B
:102CC0000E94B51587C1112359F0093309F06EC16F
:102CD000FFEF27EE83E0F15020408040E1F764C130
:102CE0008C2F0E94BC1576C18C2F8695869583709B
:102CF00019F0813061F06EC1DD2321F0802F9C2F0F
:102D0000937002C080E090E00E94A7126BC1DD23A7
:102D100021F0802F9C2F937002C080E090E00E94F1
:102D2000BD1260C1DD23F9F0053F51F0063F71F09F
:102D3000043FA9F48091CC029091CD0281600BC038
:102D40008091CC029091CD02826005C08091CC022E
:102D50009091CD0284609093CD028093CC02802F1D
:102D60000E944D231EC0053F51F0063F71F0043F05
:102D7000A9F48091CC029091CD028E7F0BC08091FE
:102D8000CC029091CD028D7F05C08091CC029091B4
:102D9000CD028B7F9093CD028093CC02802F0E9436
:102DA000B5230E943A241EC18C2F837009F045C0C0
:102DB000D11114C1402F429546954770440F440FDE
:102DC000602F6F70862F90E0A0E0B0E0042E04C06A
:102DD000880F991FAA1FBB1F0A94D2F704FF10C0C7
:102DE0000FE010E020E030E004C0000F111F221FB0
:102DF000331F4A95D2F7009510952095309503C062
:102E000000E010E09801C695C695C370BC01CD01E5
:102E1000602B712B822B932BC23049F058F4C130B8
:102E200019F00E947F1CDAC00E946D1CD7C00E945E
:102E3000911CD4C00E946B1CD1C0DD2319F08C2FD3
:102E4000817001C08695882309F4C8C0402F42953F
:102E500046954770440F440F602F6F70862F90E0A7
:102E6000A0E0B0E0042E04C0880F991FAA1FBB1F6A
:102E70000A94D2F704FF10C00FE010E020E030E029
:102E800004C0000F111F221F331F4A95D2F700956F
:102E900010952095309503C000E010E09801C6958C
:102EA000C695C370BC01CD01602B712B822B932B77
:102EB000C23049F058F4C13019F00E94441D8EC050
:102EC0000E94321D8BC00E94561D88C00E94A51C06
:102ED00085C0CF70DD2339F08C2F0E94CB1C802F52
:102EE0000E94B5157BC0802F0E94BC158C2F0E94BC
:102EF000EC1C74C0023F01F128F4003F41F0013F97
:102F0000A1F03FC0033FF9F0043F39F13AC0DD239F
:102F100041F0153008F05EC08C2F8F710E94111D9A
:102F200059C0163008F056C0F7CFDD2339F08C2F8A
:102F30008F710E94CB1C4EC0DD23C9F38C2F8F7183
:102F40000E94EC1C47C0DD2329F08C2F8F710E945A
:102F5000B61C40C00E94B11C3DC0DD2349F0CF71BA
:102F60008C2F0E94CB1C63E08C2F0E94C41E32C0A9
:102F700081E00E94D91E123068F182E00E94D91EC1
:102F800029C0DD2331F0112391F2802F0E9410140B
:102F900021C0112399F2093349F49FEFE7EEF3E0E2
:102FA0009150E040F040E1F700C00000802F0E9407
:102FB0003A1510C04C2F4F70602FC7010E94E40BD0
:102FC0000E94DC1B0FC04C2F4F70602FC7010E9466
:102FD000E70B08C088EF8C0D843020F40E94381273
:102FE0000E94D50ADD20C9F00E94361E80FD15C062
:102FF000F70112820E94301E0E94CB1CC7010E9462
:1030000016180E94301EDF91CF911F910F91FF90F3
:10301000EF90DF90CF900C94EC1CDF91CF911F913B
:103020000F91FF90EF90DF90CF9008950F931F9333
:10303000CF93DF93EC01988189812B813C81232BF5
:1030400031F08F3F31F481E09F3F19F403C081E0FC
:1030500001C080E080FD13C0CE010E94ED0A8823EC
:1030600071F0688179818A810E940D1E8C010E9415
:10307000681D0E94591CB801CE010E94C315DF9142
:10308000CF911F910F9108950E94611E0E94711EA1
:103090000E948F1E0E9462250E943A2480E090E0E8
:1030A0000E94A71280E090E00C94BD128091020172
:1030B000909103010E9439200C9444180E94511EE3
:1030C0000C945618E92FE295EF704E2F50E0FA015C
:1030D0003297EE30F105B0F4E858FF4F0C9480328F
:1030E000803F91F018F4883E68F40EC0843F51F49C
:1030F0000BC0883E48F0813F29F406C093FB882727
:1031000080F9089580E0089581E008950E94021EEC
:103110000E9462180895CF93DF9300D000D01F92D1
:10312000CDB7DEB70F900F900F900F900F90DF91FB
:10313000CF910895CF93DF9300D000D000D0CDB7CA
:10314000DEB726960FB6F894DEBF0FBECDBFDF9177
:10315000CF9108951F93CF93DF93C091E30116E0C1
:103160008091E401C81799F0D0E01C9FF0011D9FE9
:10317000F00D1124EB51FE4F40815181628173812A
:10318000848195810E949A182196C770E9CFDF91BA
:10319000CF911F91089540911502509116026091B0
:1031A0001702709118028091190290911A020C94E2
:1031B0009A18CF9380911A0282958F7009F05FC0A0
:1031C00080911702882309F45AC08091E301B091DD
:1031D000E40170911502A0911602409118025091DD
:1031E000190291E07F3F09F090E0692FC6E08B174C
:1031F00009F445C04115510521F0AF3F21F020E011
:1032000003C021E001C0262F90E020FD35C0C89FFB
:10321000F001C99FF00D1124EB51FE4F21812A13BB
:103220002BC02081271328C02281211125C0238192
:1032300034812417350710F421503109241B350B34
:10324000283C3105C8F420911A022F702061209388
:103250001A0226E0289FF001299FF00D1124E65163
:10326000FE4F80818F708061808385E192E00E94B3
:103270001618CF910C94AA1801968770B8CFCF91E9
:103280000895AF92BF92CF92DF92EF92FF920F9389
:103290001F93CF93DF93CDB7DEB761970FB6F89446
:1032A000DEBF0FBECDBF8C0185E0F801DE011D96AB
:1032B00001900D928A95E1F7D8014C9111965C919D
:1032C00011971296EC903091150260911602809140
:1032D000180290911902009731F06F3F31F421E00C
:1032E0003F3F19F403C021E001C020E0B22FB170CC
:1032F000BB2E20FD60C1F801C380D480A0901702CE
:10330000AA2009F4EEC020911A02C816D90628F0A6
:10331000D601A81BB90BCD0104C0809590958C0DEA
:103320009D1DFF24F394883C910580F0F12C207FB3
:1033300009F09CC07C2DD98AC88A6E2D89890E948B
:103340008B1885E192E00E9416182DC1822F807F94
:1033500009F054C0561314C0431312C0FE2CE110E0
:103360000FC02F70206120931A020E94CB1885E1B4
:1033700092E00E94161880911A02F80185835CC1C0
:10338000CD2831F05F3F31F481E04F3F19F403C0A5
:1033900081E001C080E080FD03C081E08E2502C095
:1033A00080E090E0F82FF170FF2E80FF1CC080912C
:1033B000E3012091E40136E0821709F41AC190E09C
:1033C000389FF001399FF00D1124EB51FE4F6181C0
:1033D000561306C06081461303C06281E61203C023
:1033E00001968770E9CFFE2CEE2009F425C180916B
:1033F0001A02816080931A02F12C1EC1561309C073
:10340000431307C0E11005C080911A02F8018583BB
:10341000A4C04D875E878D859E850E94861888236F
:1034200079F1EE2069F120911A02822F82958F7036
:1034300090E0029774F0809115029091160298879F
:103440008F831986DB86CA862C87CE0107960E9459
:10345000161886E0F801A5E1B2E001900D928A9578
:10346000E1F70E94D9180E94CB180DC0561771F0D1
:103470004D875E878D859E850E94861881111AC0B2
:10348000C8010E941618FF24F394D6C04313F0CF4E
:10349000E110EECF80911A02F8018583C8010E94E5
:1034A000161886E0E5E1F2E0DF011D928A95E9F762
:1034B000FA2CC2C0EE2021F320911A02822F8295AD
:1034C0008F7090E002972CF2809115029091160275
:1034D0009A8389831B82DD82CC822E83CE01019662
:1034E000B6CFC816D90628F0F601E81BF90BCF01B4
:1034F00004C0809590958C0D9D1D883C910548F0E9
:10350000F12C7C2DD98AC88A6E2D89890E948B184E
:103510004AC0FE2CEE2009F4B3CF561333C0431338
:1035200031C020911A0220FD24C0822F82958F7015
:10353000482F50E041155105E1F0D80115962C9324
:1035400015974F30510549F08F5F982F9295907FD6
:10355000822F8F70892B15968C93C8010E941618A4
:1035600086E0F801A5E1B2E001900D928A95E1F7BD
:103570003DC086E0F801A5E1B2E001900D928A9588
:10358000E1F75AC04D875E878D859E850E9486181B
:1035900081115FCF80911A02816080931A02C80165
:1035A0000E94161849C0E5E1F2E086E0DF011D92B5
:1035B0008A95E9F71BC0EE2009F462CF4D875E873C
:1035C0008D859E850E948618F82E882309F458CF91
:1035D00086E0F801A5E1B2E001900D928A95E1F74D
:1035E00085E192E00E940A140E94D9180E94CB182B
:1035F00023C04D875E878D859E850E94021E292FE0
:1036000022952F70223028F49F7039F0811105C067
:103610000BC0243028F49F7049F4805E883020F07D
:10362000C8010E941618BF2CFB2C06C0D8011596A5
:103630009C91907F91F7F8CF8F2D61960FB6F894FB
:10364000DEBF0FBECDBFDF91CF911F910F91FF90D5
:10365000EF90DF90CF90BF90AF9008951F93CF93DE
:10366000DF93CDB7DEB72C970FB6F894DEBF0FBE51
:10367000CDBF4F83588769877A878B879C87CE0118
:1036800007960E9441198823D1F09F8188852A8559
:103690003B85232B31F08F3F31F481E09F3F19F4BC
:1036A00003C081E001C080E080FD47C04F815885A4
:1036B00069857A858B859C850E949A183EC086E034
:1036C000FE013796DE01119601900D928A95E1F781
:1036D000FF81E8856A857B856115710531F0EF3FD3
:1036E00031F481E0FF3F19F403C081E001C080E0C4
:1036F00080FD23C02091E40130E0C901019687706C
:1037000099274091E30150E084179507F1F1F9837F
:10371000EA837D836C8396E0929FD001939FB00DE6
:103720001124AB51BE4FFE01319601900D929A9536
:10373000E1F78093E4010E94AA1816E08091E3016A
:103740009091E401891771F1189FC00111248B51E8
:103750009E4F0E944119882329F1E091E3011E9FA9
:10376000F0011124EB51FE4F408151816281738140
:10377000848195810E949A188091E30190E00196DE
:10378000877099278093E301D9CF0E945E18109229
:10379000E4011092E301E5E1F2E086E0DF011D9231
:1037A0008A95E9F72C960FB6F894DEBF0FBECDBF11
:1037B000DF91CF911F910895EF92FF920F931F9386
:1037C000CF93DF938C01892B09F46CC0F12CEE248C
:1037D000E394E8012196F8018491843740F4843021
:1037E00008F051C0813081F0823019F15BC085371B
:1037F00009F444C0A8F19CE7980F903708F052C034
:103800008F770E943A1541C00E5F1F4FFE018491D1
:1038100090E2980F983050F48770FE2D01C0FF0F92
:103820008A95EAF78F2F0E94641E14C00E9410141C
:103830002DC00E5F1F4FFE01849190E2980F9830CB
:1038400060F48770FE2D01C0FF0F8A95EAF78F2F75
:103850000E946A1E0E948F1E19C00E943A1516C04F
:103860000E5F1F4FFE01C491CC2381F08FE99FE0D2
:103870000197F1F700C00000C150F6CF0E5F1F4F57
:10388000FE01F49003C00E9410148E018F2D882336
:1038900009F49FCFEFE9FFE03197F1F700C0000096
:1038A0008150F5CFDF91CF911F910F91FF90EF9055
:1038B0000895089508950C945A1C0C945B1C0E9462
:1038C0005D1C60936F0270937002809371029093FD
:1038D00072020C9444180C945F1C0F931F93009178
:1038E0006F02109170022091710230917202602B70
:1038F000712B822B932B1F910F910C945F1C0F93B4
:103900001F9300916F02109170022091710230910B
:10391000720260237123822393231F910F910C94D1
:103920005F1C0F931F9300916F0210917002209102
:1039300071023091720260277127822793271F91AD
:103940000F910C945F1C0C945A1C0E94A31C609352
:103950006B0270936C0280936D0290936E020C94D4
:10396000441860E070E0CB010C94A51C0F931F93EA
:1039700041E050E060E070E08A019B0104C0000F6C
:10398000111F221F331F8A95D2F7C901B8011F9159
:103990000F910C94A51C0F931F9341E050E060E041
:1039A00070E004C0440F551F661F771F8A95D2F739
:1039B00080916B0290916C02A0916D02B0916E02A9
:1039C0008A019B01082B192B2A2B3B2BC901B8011B
:1039D0001F910F910C94A51C0F931F9341E050E091
:1039E00060E070E004C0440F551F661F771F8A9582
:1039F000D2F7409550956095709580916B029091AB
:103A00006C02A0916D02B0916E028A019B010823A5
:103A100019232A233B23C901B8011F910F910C944C
:103A2000A51C0F931F9341E050E060E070E004C0DC
:103A3000440F551F661F771F8A95D2F780916B023E
:103A400090916C02A0916D02B0916E028A019B016F
:103A5000082719272A273B27C901B8011F910F9171
:103A60000C94A51C0F931F9300916B0210916C0294
:103A700020916D0230916E02602B712B822B932B63
:103A80001F910F910C94A51C0F931F9300916B0233
:103A900010916C0220916D0230916E0260237123AF
:103AA000822393231F910F910C94A51C0F931F93B6
:103AB00000916B0210916C0220916D0230916E02A8
:103AC00060277127822793271F910F910C94A51CC3
:103AD000089520E1929F800D1124E82FE695E69548
:103AE000E695877051E001C0550F8A95EAF785E0A9
:103AF000E89FF0011124E55EFD4F20E030E070E02A
:103B00004081CB01022E02C0969587950A94E2F778
:103B10008170819584278523842781932F5F3F4F70
:103B20002530310569F7089520E1929F800D112419
:103B3000682F669566956695982F977085E0689FC3
:103B4000B001112440E050E080E0FB01E40FF51FDC
:103B5000E55EFD4F208130E0092E02C036952795A5
:103B60000A94E2F721703327042E01C0220F0A9431
:103B7000EAF7822B4F5F5F4F4530510531F70895CB
:103B8000BF92CF92DF92EF92FF920F931F93CF934A
:103B9000DF938C01C0906B02D0906C02E0906D02BC
:103BA000F0906E0280916F0290917002A09171026C
:103BB000B0917202C82AD92AEA2AFB2ACFE1D0E0C2
:103BC000D701C6010C2E04C0B695A7959795879589
:103BD0000A94D2F780FD04C0219790F7B12C07C05A
:103BE000BC2EB8018C2F0E94050C0197A9F38B2DD8
:103BF000DF91CF911F910F91FF90EF90DF90CF90C9
:103C0000BF900895CF93DF93EC010E94C01DBE01C9
:103C10000E94050CDF91CF9108951F93CF93DF93FE
:103C2000EB019091E201992321F0CB010E94021E49
:103C300013C0882349F0CB010E94C01D182F682FA4
:103C4000CE010E94691D04C0CB010E94941D182F53
:103C5000BE01812F0E94050CDF91CF911F91089525
:103C6000809173028595859585950895809173025D
:103C70008770089590917302977081E009F480E055
:103C8000089580919702089590919702892B8093CF
:103C900097020895809590919702892380939702C7
:103CA000089510929702089590919602892B80931F
:103CB00096020895809590919602892380939602AA
:103CC000089510929602089590919502892B809301
:103CD000950208958095909195028923809395028D
:103CE00008951092950208958091740208950895A0
:103CF0000C94771E0C94781E90917402981721F002
:103D0000809374020C947A1E089580917402882323
:103D100029F01092740280E00C947A1E0895E091CC
:103D20000201F0910301809197028083E0910201EA
:103D3000F0910301908180919602892B8083E0911C
:103D40000201F0910301908180919502892B80837B
:103D500080917402882381F0E0910201F0910301C7
:103D60009081892B808380910201909103010E94B0
:103D70009B1F81110E94851E809102019091030179
:103D80000C9444120C94771E98E0899F90011124A2
:103D9000262B209373020E94CB1C80917302859581
:103DA000859585950C94C21E1092730280E00C9448
:103DB000C21E209173028095822380937302982FF4
:103DC000977079F430E0482F082E000C550B24171B
:103DD000350739F08595859585950E94EC1C0C94E6
:103DE000D41E08959093770180937601089582956B
:103DF000982F937344E0949F900111248C7C8695B6
:103E00008695282B822F8575880F2A7A2695822BF6
:103E1000089580E090E00E94A23221E08D3E9E4F06
:103E200009F020E0822F089582E090E00C949A320D
:103E3000682F82E090E00C94A83283E090E00C942C
:103E40009A32682F83E090E00C94A83284E090E0EE
:103E50000C949A32682F84E090E00C94A832AB0165
:103E6000BC018FE090E00C94BA32AB01BC0183E15D
:103E700090E00C94BA3260E070E0CB010C94351FF6
:103E800060E070E0CB010E942F1F0C943B1F6DEE91
:103E90007EEF80E090E00E94C63260E082E090E039
:103EA0000E94A83260E083E090E00E94A832109265
:103EB0006F0210927002109271021092720260E012
:103EC00084E090E00E94A83260E085E090E00E94EB
:103ED000A83260E086E090E00E94A8326FEF87E0B1
:103EE00090E00E94A83240E050E0BA0188E090E003
:103EF0000E94BA3260E08DE090E00E94A83240E07B
:103F000050E0BA0188E190E00E94BA3260E087E1B7
:103F100090E00E94A83240E050E0BA018CE190E0CD
:103F20000E94BA3260E080E290E00E94A8320C94D5
:103F3000401F0C94471FFC01329680911401882386
:103F400031F08091D20287FF02C09EE101C096E06D
:103F500080E0915028F021912223D9F38F5FF9CF8F
:103F600008959C01FC0132969FEF80E04191461735
:103F700089F09F3F19F4411101C0982F8F5F86305F
:103F8000A9F79F3F39F0F901E90FF11D97FDFA9567
:103F90006283089508959C012A5F3F4FFC0142818E
:103FA000461301C01282019682179307B9F708954C
:103FB000262F2695269526952E3170F4FC01E20FCA
:103FC000F11D677021E030E001C0220F6A95EAF729
:103FD0008281282B228308958091980280FF0CC053
:103FE0001F926F9381E695E09F938F930E940B0938
:103FF0000F900F900F900F900895262F26952695DD
:1040000026952E3178F4FC01E20FF11D677021E056
:1040100030E001C0220F6A95EAF7209582812823BB
:10402000228308958091980280FF0CC01F926F93A5
:1040300083E495E09F938F930E940B090F900F905C
:104040000F900F90089520911401222329F02091C0
:10405000D20227FD0C94D81F0C94B11F209114019B
:10406000222329F02091D20227FD0C94FD1F0C94ED
:10407000CB1F20911401FC013296222331F0809154
:10408000D20287FF02C08EE101C086E0DF011D92EF
:104090008A95E9F7089508950C944B200C944B20D1
:1040A000CF930E944E200E945A090E944C20C0E0EB
:1040B0008C2F0E94060A892B29F4CF5FC830C1F7E4
:1040C00080E001C081E0CF9108950C944B200C94C6
:1040D00065200E9467208091D802843049F11092B7
:1040E000990220E488E190E00FB6F894A8958093B7
:1040F00060000FBE2093600080E00E94D50A0E94FD
:10410000672083B7817F846083BF83B7816083BF6B
:104110007894889583B78E7F83BF0FB6F894A8955F
:1041200080916000886180936000109260000FBEF3
:1041300008950C944B200E945E180E9438120E9431
:10414000D50A0C9499201F920F920FB60F9211244A
:104150008F939F93AF93BF9380919902811113C066
:104160008091CE029091CF02A091D002B091D10265
:104170004196A11DB11D8093CE029093CF02A093D2
:10418000D002B093D102BF91AF919F918F910F90C8
:104190000FBE0F901F90189582E084BD93E095BDEF
:1041A0009AEF97BD80936E0008952FB7F894809191
:1041B000CE029091CF02A091D002B091D1022FBF38
:1041C00008952FB7F8946091CE027091CF0280913C
:1041D000D0029091D1022FBF0895CF92DF92EF923B
:1041E000FF920F931F932FB7F8944091CE025091F6
:1041F000CF026091D0027091D1022FBF6A017B0182
:10420000EE24FF248C0120E030E0C016D106E20647
:10421000F30610F4415051099A01281B390BC901CA
:104220001F910F91FF90EF90DF90CF9008957894B9
:104230001F920F920FB60F9211248F939F93AF93FB
:10424000BF938091CE029091CF02A091D002B09105
:10425000D1020196A11DB11D8093CE029093CF0291
:10426000A093D002B093D102BF91AF919F918F9153
:104270000F900FBE0F901F90189587E797E79093C8
:104280000108809300089AE088E10FB6F894A89599
:10429000809360000FBE90936000FFCFAF92BF92FB
:1042A000CF92DF92EF92FF920F931F93CF93C0E0D4
:1042B000CC24C394D12CE82EF12C8C2F0E94060A1A
:1042C0005C0100E010E0C601002E02C0880F991FBB
:1042D0000A94E2F78A219B21892B31F40F5F1F4F4B
:1042E0000031110581F70AC0602F7C2F80E00E9409
:1042F000E80BE816F90691F781E004C0CF5FC830FB
:10430000E1F680E0CF911F910F91FF90EF90DF9049
:10431000CF90BF90AF900895CF93C82F8CE20E94AA
:104320004E21882321F08C2FCF910C944E2180E0D8
:10433000CF910895CF930E94091F811102C00E945E
:10434000991F86E895E00E947208C5E6C15049F0C1
:104350000E945A098FE39CE90197F1F700C0000021
:10436000F5CF8FE795E00E94720889E20E948C21C8
:1043700081110FC18AE20E948C2181110E94991F34
:1043800085E00E948C2181110E943D210E94141F12
:104390008093980287E00E948C218823A9F18BE109
:1043A0000E948C21882351F08091980281FB222762
:1043B00020F991E0922790FB81F90EC08EE00E94D7
:1043C0008C21882361F08091980282FB222720F9BA
:1043D00091E0922790FB82F98093980215C080E1CA
:1043E0000E948C2190919802882341F093FB222710
:1043F00020F981E0822780FB93F904C0892F809502
:1044000080FB90F990939802809198020E94181F67
:104410000E94261F90E09093D3028093D20280EEF8
:104420000E948C21882341F08091D202982F909590
:1044300090FB80F98093D20289E30E948C2188232B
:1044400059F08091D20281FB222720F991E0922736
:1044500090FB81F98093D20282EE0E948C21882306
:1044600059F08091D20282FB222720F991E0922715
:1044700090FB82F98093D20286EE0E948C218823E1
:1044800059F08091D20283FB222720F991E09227F4
:1044900090FB83F98093D20283EE0E948C218823C3
:1044A00059F08091D20284FB222720F991E09227D3
:1044B00090FB84F98093D20285E30E948C218823AB
:1044C00059F08091D20285FB222720F991E09227B2
:1044D00090FB85F98093D20281E30E948C2188238E
:1044E00059F08091D20286FB222720F991E0922791
:1044F00090FB86F98093D20281E10E948C2188236F
:1045000059F08091D20287FB222720F991E092276F
:1045100090FB87F98093D2028091D2020E942A1FD9
:1045200087E20E948C21C82F8EE10E948C2181118C
:10453000C2608FE10E948C218111C46080E20E94E0
:104540008C218111C86081E20E948C218111C0619F
:1045500082E20E948C218111C06283E20E948C2140
:104560008111C06484E20E948C21882311F0C0680C
:1045700002C0CC2329F08C2F0E94211F6C2F03C076
:104580000E941D1F682F70E080E090E0CF910C9496
:104590006B1CCF91089580919D0280FF0BC06091AC
:1045A000070185E0689FB0011124759567957595A1
:1045B00067952BC081FF09C06091070185E0689F66
:1045C000B00111247595679520C082FF07C06091E6
:1045D000070185E0689FB001112417C090919C02EB
:1045E0009923D1F060910601961788F72091070171
:1045F00085E0289F90011124929FA001939F500D68
:10460000112470E0CA010E946C326038710540F4D8
:104610006115710519F406C065E070E0862F0895F4
:104620008FE7089581E0089580919D0280FF08C082
:104630006091050170E0759567957595679521C046
:1046400081FF06C06091050170E07595679519C0FE
:1046500082FF04C06091050170E010C090919C023F
:10466000992399F0609104019617A0F780910501B4
:10467000899FC001112470E00E946C32603871057E
:1046800040F46115710519F406C061E070E0862FF1
:1046900008958FE7089581E00895803F21F40E94F6
:1046A000CB22819504C0813F29F40E94CB228093C4
:1046B000A1020895823F21F40E94CB22819504C07B
:1046C000833F29F40E94CB228093A0020895893F62
:1046D00019F40E94142305C08A3F31F40E94142368
:1046E00081958093A20208958B3F21F40E941423A8
:1046F000819504C08C3F29F40E9414238093A30267
:104700000895843F21F480919F02816017C0853F06
:1047100021F480919F02826011C0863F21F4809134
:104720009F0284600BC0873F21F480919F028860C4
:1047300005C0883F31F480919F02806180939F0281
:1047400008958D3F21F480919D0281600BC08E3FC2
:1047500021F480919D02826005C08F3F29F48091F1
:104760009D02846080939D020895803F39F480917A
:10477000A10287FF6CC01092A10269C0813F29F499
:104780008091A1021816BCF362C09091A002823FF2
:1047900029F497FF5CC01092A00259C0833F19F41E
:1047A0001916CCF354C0893F41F48091A202181627
:1047B0000CF04DC01092A2024AC08A3F29F48091A9
:1047C000A20287FF44C0F6CF8B3F39F48091A30249
:1047D00087FF3DC01092A3023AC08C3F29F480911C
:1047E000A3021816BCF333C0843F21F480919F02CA
:1047F0008E7F17C0853F21F480919F028D7F11C06D
:10480000863F21F480919F028B7F0BC0873F21F46C
:1048100080919F02877F05C0883F31F480919F027D
:104820008F7E80939F0213C08D3F21F480919D0263
:104830008E7F0BC08E3F21F480919D028D7F05C03D
:104840008F3F29F480919D028B7F80939D02809100
:10485000A00281110EC08091A10281110AC0809135
:10486000A202811106C08091A302811102C01092A0
:104870009C0208958091980283FF7EC082EC95E0AF
:104880000E94720880919F021F928F938DEB95E09A
:104890009F938F930E940B098BEB95E00E94720807
:1048A0008091A002282F082E000C330B3F938F938A
:1048B00088EB95E09F938F930E940B0986EB95E020
:1048C0000E9472088091A102282F082E000C330B41
:1048D0003F938F9383EB95E09F938F930E940B09F7
:1048E00081EB95E00E9472088091A202282F082E89
:1048F000000C330B3F938F938EEA95E09F938F9339
:104900000E940B098CEA95E00E9472088091A30234
:10491000282F082E000C330B3F938F9389EA95E0E4
:104920009F938F930E940B0986EA95E00E9472087C
:1049300080919C021F928F9383EA95E09F938F93BF
:104940000E940B0981EA95E00E94720880919D0205
:104950001F928F938EE995E09F938F930E940B098E
:104960008BE995E00E9472088DB79EB74C960FB602
:10497000F8949EBF0FBE8DBF8EE992E00E949912FF
:104980000E94D52090939B0280939A0208951F93D2
:10499000CF93DF9380919A0290919B020E94ED2029
:1049A000AC0190919C02992321F02091080130E004
:1049B00006C0209109018AE0289F90011124421726
:1049C000530708F47BC08091A002C091A102D0914E
:1049D000A2021091A302811107C0C1116BC0D111B5
:1049E00069C0111167C06AC09F3F19F09F5F909323
:1049F0009C02181624F40E94CB228093A00280917E
:104A0000A00287FF05C00E94CB2281958093A0025F
:104A10001C1624F40E94CB228093A1028091A10253
:104A200087FF05C00E94CB2281958093A10230911F
:104A3000A0023323E1F02091A1022223C1F045EB33
:104A40003403C0011124992319F09093A00203C0EC
:104A500081E08093A00235EB2303C0011124992348
:104A600019F09093A10203C081E08093A1021D166A
:104A700024F40E9414238093A2028091A20287FF53
:104A800005C00E94142381958093A202111624F47C
:104A90000E9414238093A3028091A30287FF05C084
:104AA0000E94142381958093A302DF91CF911F91DF
:104AB0000C943A249F3F09F099CFAACFDF91CF9170
:104AC0001F910895EEE9F2E086E0DF011D928A95DC
:104AD000E9F710929C0210929D02089585EE97E0EE
:104AE0000E9472081F9281E08F931F9285E08F933E
:104AF00087E997E09F938F930E940B090F900F9087
:104B00000F900F900F900F9008958330E9F128F4E3
:104B1000813061F0823009F10895853009F462C076
:104B200008F449C0863009F474C0089580910901E1
:104B3000262F30E0280F311D2F3F310524F4680F58
:104B40006093090103C08FEF8093090180910901EF
:104B50001F928F9380ED96E072C080910801262FFE
:104B600030E0280F311D2F3F310524F4680F60938A
:104B7000080103C08FEF80930801809108011F9204
:104B80008F938EEB96E05BC080910701262F30E07B
:104B9000280F311D2F3F310524F4680F6093070162
:104BA00003C08FEF80930701809107011F928F93BD
:104BB0008BEA96E044C080910601262F30E0280F52
:104BC000311D2F3F310524F4680F6093060103C0A7
:104BD0008FEF80930601809106011F928F9386E9E3
:104BE00096E02DC080910501262F30E0280F311D61
:104BF0002F3F310524F4680F6093050103C08FEF48
:104C000080930501809105011F928F938DE796E0B7
:104C100016C080910401262F30E0280F311D2F3F50
:104C2000310524F4680F6093040103C08FEF809373
:104C30000401809104011F928F9382E696E09F9376
:104C40008F930E940B090F900F900F900F90089573
:104C5000833081F128F4813059F08230D1F0089509
:104C6000853009F449C0B8F1863009F456C008957A
:104C700080910901681720F4861B8093090102C006
:104C800010920901809109011F928F9383E596E0AC
:104C900054C080910801681720F4861B8093080196
:104CA00002C010920801809108011F928F9381E445
:104CB00096E043C080910701681720F4861B80931B
:104CC000070102C010920701809107011F928F9384
:104CD0008EE296E032C080910601681720F4861BB0
:104CE0008093060102C010920601809106011F9276
:104CF0008F9389E196E021C080910501681720F427
:104D0000861B8093050102C0109205018091050168
:104D10001F928F9380E096E010C080910401681785
:104D200020F4861B8093040102C01092040180913C
:104D300004011F928F9385EE95E09F938F930E94BD
:104D40000B090F900F900F900F900895CF93C82FDD
:104D50001F928F938AEE98E09F938F930E940B0986
:104D600081E090E0A0E0B0E0BC01CD0104C0660F9E
:104D7000771F881F991FCA95D2F70E946B1C0F904E
:104D80000F900F900F90CF910C945E18CF93482FF7
:104D900050E0FA013597EF33F10508F03BC2EA57CE
:104DA000FF4F0C94803283E49EE00E9472088FE7EC
:104DB0009DE00E9472080E941D1F1F928F938CE736
:104DC0009DE09F938F930E940B098AE79DE00E94CC
:104DD00072080E94141FC82F87E69DE00E94720887
:104DE0001F92CF9382E69DE09F938F930E940B09C1
:104DF00080E69DE00E94720886E59DE00E947208B0
:104E00008C2F81701F928F9383E59DE09F938F93EA
:104E10000E940B0981E59DE00E94720887E49DE0F5
:104E20000E947208C1FB882780F91F928F9384E447
:104E30009DE09F938F930E940B0982E49DE00E9466
:104E4000720886E39DE00E947208C2FB882780F901
:104E50001F928F9383E39DE09F938F930E940B0992
:104E600081E39DE00E94720888E29DE00E94720842
:104E7000C3FBCC27C0F91F92CF9385E29DE09F939F
:104E80008F930E940B0983E29DE00E9472080E94AA
:104E9000261FC82F8FE09DE00E9472081F92CF93BB
:104EA0008AE09DE09F938F930E940B0988E09DE02C
:104EB0000E9472088FEE9CE00E9472088C2F817015
:104EC0001F928F938CEE9CE09F938F930E940B090F
:104ED0008DB79EB780960FB6F8949EBF0FBE8DBF5C
:104EE0008AEE9CE00E94720883ED9CE00E947208AA
:104EF000C1FB882780F91F928F9380ED9CE09F93E0
:104F00008F930E940B098EEC9CE00E9472088CEB40
:104F10009CE00E947208C2FB882780F91F928F9341
:104F200089EB9CE09F938F930E940B0987EB9CE099
:104F30000E94720885EA9CE00E947208C3FB8827E1
:104F400080F91F928F9382EA9CE09F938F930E9437
:104F50000B0980EA9CE00E94720886E99CE00E94AE
:104F60007208C4FB882780F91F928F9383E99CE025
:104F70009F938F930E940B0981E99CE00E94720825
:104F80008FE79CE00E947208C5FB882780F91F927A
:104F90008F938CE79CE09F938F930E940B098AE785
:104FA0009CE00E9472088EE59CE00E947208C6FB9D
:104FB000882780F91F928F938BE59CE09F938F93B6
:104FC0000E940B0989E59CE00E94720881E59CE043
:104FD0000E947208C7FBCC27C0F91F92CF938EE4C2
:104FE0009CE09F938F930E940B098CE49CE00E94AD
:104FF00072088DB79EB74C960FB6F8949EBF0FBE41
:105000008DBF06C082E39EE00E9472080E94991F35
:10501000C1E005C18AE99AE07FC080919802817F52
:105020008E7F8093980283E79AE00E9472088EE256
:105030009EE00E94720881E08093A502E9CF0E9461
:105040005E1882E19EE00E9472089FEF23ED80E3EC
:10505000915020408040E1F700C000000E943D21B7
:10506000D7CF80919802C82FC095C170C0FB80F93E
:1050700080939802CC2319F086E09EE0BDC089EFB2
:105080009DE00E94720880919802897F877F8093BB
:105090009802BECF9091980291FBCC27C0F981E095
:1050A000C827892FC0FB81F980939802CC2319F07F
:1050B0008CEE9DE027C08EED9DE02EC09091980271
:1050C00092FBCC27C0F981E0C827892FC0FB82F969
:1050D00080939802CC2319F08FEC9DE013C08FEBE6
:1050E0009DE01AC09091980293FBCC27C0F981E013
:1050F000C827892FC0FB83F980939802CC2351F0F5
:1051000083EB9DE00E9472088091980281608093F9
:10511000980285C086EA9DE00E94720879CF84E6F5
:105120009AE00E9472088DE49AE00E94720883E17E
:105130009AE00E94720880EE99E00E9472088BE962
:1051400099E00E94720880E799E0E6CF82E699E054
:105150000E9472080E9438121F928F9388E499E08F
:105160009F938F930E940B09809114011F928F933C
:1051700081E399E09F938F930E940B098091CA026B
:105180001F928F938EE199E09F938F930E940B095A
:105190008091D20287FB882780F91F928F9386E047
:1051A00099E09F938F930E940B090E94E1209F93A7
:1051B0008F937F936F938FEE98E09F938F930E94CE
:1051C0000B098DB79EB746960FB6F8949EBF0FBEDB
:1051D0008DBF1ECF0E945E189091D20297FBCC2704
:1051E000C0F981E0C827892FC0FB87F98093D202DC
:1051F000CC2329F08CE99DE00E94720810C081E95F
:105200009DE08ACF895303C08D5101C080E00E9488
:10521000A626FECE8FE89DE00E947208C0E08C2F8B
:10522000CF91089580E008950C9412298E518A3010
:1052300030F4E82FF0E0E35AFE4F8081089580E0DB
:105240000895CF93C82F8091A502813071F020F08E
:10525000823009F44BC03FC1E0910201F09103019B
:105260008081823209F039C107C0E0910201F091DA
:1052700003018081823261F48C2F0E9414298111F4
:1052800004C08C2F0E94C6262FC081E090E02CC065
:105290008C2F0E941229811126C0C431E1F070F4D4
:1052A000CB3081F0C031D1F40E946E2582EE98E0BF
:1052B0000E94720882E08093A50215C0C93259F09D
:1052C000C83361F483E79AE00E94720886EE98E0A2
:1052D0000E94720808C01092A50201C180EE98E0F9
:1052E0000E947208FCC081E08170FBC0C43228F5C6
:1052F000CE3108F0C1C0CB30A1F1D0F4C73009F0F5
:10530000D0C08EE18093090182E3809308018AE096
:105310008093070184E18093060188E08093050172
:1053200088E28093040186E897E00E947208BCC07E
:10533000C33149F1C431C1F0B4C0CB3409F4A6C0C3
:1053400028F4C93289F0C83361F0ABC0C13509F423
:105350009BC0C23509F496C0CE3409F0A2C06AE001
:105360009BC00E946E25A0C08091A402882319F0E2
:105370001092A40299C083E997E00E94720881E02C
:105380008093A502AEC08DE697E00E9472088BE57F
:1053900097E00E947208809109011F928F9388E51F
:1053A00097E09F938F930E940B0986E597E00E94F8
:1053B000720884E497E00E947208809108011F92AD
:1053C0008F9381E497E09F938F930E940B098FE363
:1053D00097E00E94720880E397E00E947208809133
:1053E00007011F928F938DE297E09F938F930E9406
:1053F0000B098BE297E00E9472088AE197E00E9415
:105400007208809106011F928F9387E197E09F9326
:105410008F930E940B0985E197E00E94720880E05B
:1054200097E00E947208809105011F928F938DEF83
:1054300096E09F938F930E940B098BEF96E00E945A
:10544000720884EE96E00E947208809104011F9217
:105450008F9381EE96E09F938F930E940B098FEDBF
:1054600096E00E9472088DB79EB748960FB6F894E2
:105470009EBF0FBE8DBF18C08C2F0E94162980932F
:10548000A40212C061E003C061E006C06AE080913E
:10549000A4020E94852508C08091A4020E942826AB
:1054A00003C084E897E013C08091A402882369F0C8
:1054B0001F928F938EE797E09F938F930E940B0923
:1054C0000F900F900F900F9004C08BE797E00E9411
:1054D000720881E006C01092A50280E002C080E060
:1054E00003CFCF9108958091C90208959FB7F89492
:1054F0001092A8029FBF9091D802943009F057C033
:105500009091E9009F703091EC00232F217030FDC5
:1055100020E8922B23E02093E9002091EB0020FF6C
:1055200043C02091EE0027FF3FC02091A602222316
:1055300021F02091E80025FF37C01092A60226E056
:105540003091E80035FD15C03091D802343061F556
:105550003091EB0035FD28C0215021F481E080938B
:10556000A60222C0EFE9FFE03197F1F700C000008A
:10557000E7CF8093F1008091E80085FD0AC080911B
:10558000E80080FFFCCF8091E8008E778093E800F0
:1055900006C08FB7F89421E02093A8028FBF9F70B8
:1055A0009093E90080E008959F709093E9008FEF59
:1055B00008950F931F93CF93DF9300D01F92CDB721
:1055C000DEB78C010E94A62D823011F0843021F5C7
:1055D00084E089831B830A8382E08093E9008FEF54
:1055E0009091E800815095FD06C095ED9A95F1F7F0
:1055F00000008111F5CF8091E80085FF0DC040E0EB
:1056000050E063E070E0CE0101960E94C32D8091CE
:10561000E8008E778093E8000F900F900F90DF9155
:10562000CF911F910F910895CF93DF9300D01F92D8
:10563000CDB7DEB72091D802243031F523E029839D
:10564000805891099B838A8382E08093E9008FEFE1
:105650009091E800815095FD06C095ED9A95F1F77F
:1056600000008111F5CF8091E80085FF0DC040E07A
:1056700050E063E070E0CE0101960E94C32D80915E
:10568000E8008E778093E8000F900F900F90DF91E5
:10569000CF910895CF93DF93EC010E94A62D823025
:1056A00011F08430F9F482E08093E9008FEF90915B
:1056B000E800815095FD06C095ED9A95F1F7000040
:1056C0008111F5CF8091E80085FF0CC040E050E0EB
:1056D00066E070E0CE010E94C32D8091E8008E77D5
:1056E0008093E800DF91CF910895CF93DF93EC0191
:1056F0000E94A62D823011F08430D9F580911401DA
:10570000882339F08091D20287FF03C060E282E0F3
:1057100002C068E081E08093E9008FEF9091E8009B
:10572000815095FD06C095ED9A95F1F70000811125
:10573000F5CF8091E80085FF1CC080911401811194
:1057400005C040E050E068E070E003C070E040E079
:1057500050E0CE010E94C32D8091E8008E778093A7
:10576000E80080E2FE01A9EAB2E001900D928A957C
:10577000E1F7DF91CF91089583E79EE00E947208E0
:105780008091D702811109C00E94542F0E94B12F2D
:105790008091E20084608093E20008958FE69EE0AD
:1057A0000E9472081092D70208958BE69EE00C9436
:1057B000720887E69EE00C94720883E69EE00E94E1
:1057C00072080C949B202091A7022F5F822F62E326
:1057D0000E946032992319F02093A7020895109235
:1057E000A7028091A802882371F18091D8028430A9
:1057F00041F58091E9008F702091EC00922F91701B
:1058000020FD90E8892B93E09093E9009091EB00C4
:1058100090FF14C09091EE0097FF10C09091E800A7
:1058200095FF03C01092F100F9CF9091E80090FF2E
:1058300005C09091E8009E779093E8008F70809368
:10584000E9001092A802089542E061EC81E00E9414
:10585000CD2E42E261EC82E00E94CD2E42E261EC6C
:1058600083E00C94CD2E8091DA02833009F460C07D
:1058700030F4813071F0823009F499C008958A3093
:1058800009F485C08B3009F46BC0893009F0A7C0DA
:1058900020C08091D902813A09F0A1C08091E8002E
:1058A000877F8093E8008091DD029091DE02892B52
:1058B00021F460E289EA92E003C060E080E090E0D9
:1058C00070E00E940E2E8091E8008B778093E800B4
:1058D00008958091D902813209F081C08091DD0262
:1058E0009091DE02029708F07AC08091E800877FED
:1058F0008093E8008091E80082FD05C08091D80285
:105900008111F8CF6CC02091F3008091F20090E0FB
:10591000922B029729F48091F1008B7F813021F442
:105920008091F1008093C9028091E8008B7753C089
:105930008091D902813A09F052C08091DD029091A4
:10594000DE02892B09F04BC08091E800877F8093AD
:10595000E8008091E80080FFFCCF8091140136C000
:105960008091D9028132D9F58091DD029091DE02D9
:10597000892BA9F58091E800877F8093E8000E9439
:10598000022F8091DB02809314010C945E188091A9
:10599000D902813221F58091E800877F8093E80069
:1059A0000E94022F8091DC028093CA0208958091A8
:1059B000D902813AA1F48091E800877F8093E800C2
:1059C0008091E80080FFFCCF8091CA028093F100B3
:1059D0008091E8008E778093E8000C94022F089560
:1059E00084B7877F84BF0FB6F894A8958091600034
:1059F000886180936000109260000FBE80E8809301
:105A00006100109261000E94E3120E94542F0E94D4
:105A1000B12F8091E20084608093E20086E79AE2F1
:105A20000E94F21E78940E9445320E94EB128AE096
:105A300091E00E94331282E59EE00E9472088091FC
:105A4000D802853089F48EE49EE00E9472080E949C
:105A500069208091D602882391F30E9450208823E8
:105A600071F30E94AD2DEBCF0E941D13E8CF0C9473
:105A7000392D292F332723303105C9F060F4213027
:105A8000310581F02230310509F047C08BE590E007
:105A90002BEA3EE046C02132310511F122323105B8
:105AA00061F13BC082E190E026E03FE03AC09927F7
:105AB0008130910561F040F08230910559F00397F3
:105AC00061F5E7E7FEE008C0E7EAFEE005C0E1E9CE
:105AD000FEE002C0EDE7FEE0849190E09F0121C06E
